:020000040800F2
:100000003004002001060008B1020008B302000815
:10001000B7020008BB020008BF0200080000000091
:10002000000000000000000000000000C302000803
:10003000C502000800000000C7020008C90200084D
:100040001B0600081B0600081B0600081B0600080C
:100050001B0600081B0600081B0600081B060008FC
:100060001B0600081B0600081B0600081B060008EC
:100070001B0600081B0600081B0600081B060008DC
:100080001B0600081B0600081B0600081B060008CC
:100090001B0600081B0600081B0600081B060008BC
:1000A0001B0600081B0600081B0600081B060008AC
:1000B0001B0600081B0600081B0600081B0600089C
:1000C0001B0600081B0600081B0600081B0600088C
:1000D0001B0600081B0600081B0600081B0600087C
:1000E0001B0600081B0600081B0600081B0600086C
:1000F0001B0600081B0600081B0600081B0600085C
:100100001B0600081B0600081B0600081B0600084B
:100110001B0600081B0600081B0600081B0600083B
:100120001B0600081B0600081B0600081B0600082B
:10013000DFF80CD000F0FAFF004800476D0100081E
:100140003004002010B526A001F002F82FA000F026
:10015000FFFF3AA000F0FCFF3EA000F0F9FF43A033
:1001600000F0F6FF47A000F0F3FF10BD00F09EF98D
:1001700000F0C4F9FFF7E6FF30E0474801F072F8FD
:10018000C4B2214645A000F0E3FF312C04D0322C4C
:100190000CD0332C1ED113E04FF48071424800F094
:1001A00050FB0421414800F04AFB16E04FF48071F7
:1001B0003D4800F044FB04213C4800F042FB0CE0C9
:1001C0004FF48071384800F03AFB0421374800F0C2
:1001D00036FB02E0FFF7B6FF00BF00BFCDE700002F
:1001E0000D0A202020D5E2CAC7D2BBB8F6CDA8B9E7
:1001F000FDB4AEBFDAD6B8C1EEBFD8D6C64C4544C2
:10020000B5C6CAB5D1E9200A00000000BFAAB7A24E
:10021000B0E5BDD3B5BDD6B8C1EEBAF3BFD8D6C62A
:100220004C4544B5C6D1D5C9ABA3ACD6B8C1EEB622
:10023000D4D3A6C8E7CFC2A3BA0A0000D6B8C1EE8D
:100240002020202D2D2D2D2D2D204C4544B5C6BA16
:10025000C5200A0031202020202D2D2D2D2D2D20D0
:100260002020204C454431200A000000322020206C
:10027000202D2D2D2D2D2D202020204C45443220A9
:100280000A00000033202020202D2D2D2D2D2D2083
:10029000202020C3F0200A0028000020CAD5B5BDC8
:1002A0002025630A000000000008014000140140FE
:1002B000704700BFFEE700BFFEE700BFFEE700BFDC
:1002C000FEE7704770477047704700000CB500208C
:1002D000019000906C48006840F480306A490860E2
:1002E00000BF6948006800F4003000900198401C8D
:1002F0000190009818B90198B0F5A06FF1D162484B
:10030000006800F4003010B10120009001E00020EE
:1003100000900098012843D15C48006840F010002C
:100320005A4908600846006820F003000860084643
:10033000006840F002000860534840685249486035
:100340000846406848600846406840F4806048605D
:100350000846406820F47C1048600846406840F435
:10036000E81048600846006840F08070086000BFF0
:100370004548006800F000700028F9D04248406805
:1003800020F00300404948600846406840F0020001
:10039000486000BF3C48406800F00C000828F9D1D4
:1003A0000CBD10B5FFF792FF10BD10B536480068C0
:1003B00040F001003449086008464068344908406C
:1003C0003149486008460068324908402E490860B3
:1003D0000846006820F4802008600846406820F441
:1003E000FE0048604FF41F008860FFF7DAFF4FF00F
:1003F00000602949086010BD10B5002100200022CE
:10040000214B5B6803F00C0121B1042906D00829B7
:1004100028D107E0214B224C236027E01F4B204CC2
:10042000236023E0184B5B6803F47010164B5B6885
:1004300003F48032022303EB904022B9194B43436B
:10044000174C23600DE0104B5B6803F4003323B1BD
:10045000144B4343124C236003E0104B4343104CB6
:10046000236003E00D4B0E4C236000BF00BF064B22
:100470005B68C3F303130C4CE15C094B1B68CB4076
:10048000074C236010BD0000001002400020024015
:100490000000FFF8FFFFF6FE08ED00E000127A0012
:1004A0000000002000093D000400002008B50121E3
:1004B000242000F0D3FB4FF48070ADF80000102032
:1004C0008DF8030003208DF802006946094800F00A
:1004D00009F94FF48071074800F0B1F90420ADF834
:1004E00000006946044800F0FDF80421024800F0CD
:1004F000A6F908BD000801400014014000B585B010
:100500000121042000F0AAFB0121880300F0A6FBD2
:100510004FF40070ADF8100018208DF81300032080
:100520008DF8120004A9344800F0DCF84FF4806024
:10053000ADF8100004208DF8130004A92E4800F037
:10054000D1F84FF4E13000900020ADF80400ADF890
:100550000600ADF80800ADF80C000C20ADF80A005C
:100560006946264800F021FC0121244800F0A9FC3E
:1005700005B000BD70B504460D462946204600F082
:100580000DFD00BF8021204600F076FD0028F9D047
:1005900070BD70B506460C46002500BF615D304653
:1005A000FFF7E8FF6D1C605D0028F7D100BF402118
:1005B000304600F061FD0028F9D070BD70B50446EA
:1005C0000D46E1B20D4800F0E9FC00BF80210B4868
:1005D00000F052FD0028F9D0204670BD10B5044649
:1005E00000BF2021054800F047FD0028F9D003484E
:1005F00000F0D8FC10BD00000008014000380140A8
:100600000648804706480047FEE7FEE7FEE7FEE7AC
:10061000FEE7FEE7FEE7FEE7FEE7FEE7AB030008C6
:100620003101000810B50446CC48844208D10121AC
:10063000042000F02DFB0021042000F029FB46E0FF
:10064000C748844208D10121082000F021FB002185
:10065000082000F01DFB3AE0C248844208D1012185
:10066000102000F015FB0021102000F011FB2EE0FF
:10067000BD48844208D10121202000F009FB00215F
:10068000202000F005FB22E0B848844208D1012177
:10069000402000F0FDFA0021402000F0F9FA16E0B9
:1006A000B348844208D10121802000F0F1FA0021F2
:1006B000802000F0EDFA0AE0AE48844207D1012123
:1006C000801500F0E5FA0021A01500F0E1FA10BD58
:1006D00010B50121084600F0DBFA0021012000F0EE
:1006E000D7FA10BD2DE9F041024600250026002072
:1006F00000230024002791F803C00CF00F0591F8A7
:1007000003C00CF0100CBCF1000F03D091F802C034
:100710004CEA050591F800C0BCF1000F31D0146817
:1007200000202BE04FF0010C0CFA00F3B1F800C0F0
:100730000CEA03069E4220D183004FF00F0C0CFA06
:1007400003F7BC4305FA03FC4CEA040491F803C028
:10075000BCF1280F06D14FF0010C0CFA00FCC2F8D6
:1007600014C00AE091F803C0BCF1480F05D14FF066
:10077000010C0CFA00FCC2F810C0401C0828D1D3B0
:100780001460B1F800C0BCF1FF0F34DD54680020E4
:100790002EE000F1080C4FF0010808FA0CF3B1F854
:1007A00000C00CEA03069E4221D183004FF00F0CDB
:1007B0000CFA03F7BC4305FA03FC4CEA040491F875
:1007C00003C0BCF1280F05D100F1080C08FA0CF8A1
:1007D000C2F8148091F803C0BCF1480F07D100F1B2
:1007E000080C4FF0010808FA0CF8C2F81080401C01
:1007F0000828CED35460BDE8F0814FF6FF71018028
:10080000022181700421C170704702460020936864
:100810000B400BB1012000E00020704701468868C2
:1008200080B2704702460020D3680B400BB1012014
:1008300000E0002070470146C86880B2704701613F
:100840007047416170470AB1016100E04161704742
:10085000C16070474FF480320A43826181618261D6
:1008600082698269704702460020434B18684FF640
:100870008073184040EA021008433F4B18607047ED
:100880003E49C8617047F0B50A46002300240021A4
:10089000002500F00046B6F1004F02D1364EF16956
:1008A00001E0354E7168C0F3034583B200F4401691
:1008B000B6F5401F08D121F070612F4E766826F002
:1008C00070662D4F7E6012E000F48016B6F5801F32
:1008D00006D1032606FA05F4A14341F0706106E053
:1008E000460D360103FA06F6B14341F0706122B1BC
:1008F000460D360103FA06F6314300F00046B6F124
:10090000004F02D11C4EF16101E01B4E7160F0BD41
:1009100030B500228B071C0F0F2303FA04F2164B8D
:1009200008338C1053F824309343134C08348D1043
:1009300044F8253023468C1053F824308C07240FBC
:1009400000FA04F423430C4C08348D1044F825308D
:1009500030BD0A49DC3108607047000000080140E2
:10096000000C01400010014000140140001801403B
:10097000001C014000200140000001400000204216
:10098000DF48006840F00100DD4908600846406823
:10099000DC490840DA49486008460068DA490840FE
:1009A000D74908600846006820F48020086008469F
:1009B000406820F4FE0048604FF41F0088607047D4
:1009C000CF49096821F48031CD4A11601146096888
:1009D00021F480211160B0F5803F03D0B0F5802F65
:1009E0000ED106E0C649096841F48031C44A11605D
:1009F00007E0C349096841F4A021C14A116000E041
:100A000000BF00BF704710B5014600220023002040
:100A10004A11012A02D1BA4C236806E0022A02D107
:100A2000B74C236A01E0B64C636A01F01F0201244F
:100A300094401C400CB1012000E0002010BD38B5EE
:100A4000002000900024002500BF3120FFF7DBFFCD
:100A500005460098401C00900098B0F5A06F01D0AA
:100A6000002DF2D03120FFF7CEFF08B1012400E0C5
:100A70000024204638BD01460020A14A106820F01D
:100A8000F80040EAC10010607047A0490860704754
:100A9000024600209A4B586820F47C1042EA010379
:100AA0001843974B5860704798490866704701464D
:100AB0000020934A506820F00300084350607047BC
:100AC0008F48406800F00C007047014600208C4AB7
:100AD000506820F0F0000843506070470146002045
:100AE000874A506820F4E060084350607047014630
:100AF0000020834A506820F4605040EAC1005060F2
:100B0000704729B17E4A527A02437D4B5A7204E003
:100B10007B4A527A82437A4B5A7270477B49D8316A
:100B20000860704701460020754A506820F4404034
:100B30000843506070470021714A20321170704A9A
:100B400082F82010012802D004280AD104E00121F3
:100B50006B4A2032117005E00521694A203211707C
:100B600000E000BF00BF70476949086070476449F2
:100B7000096A0143624A1162704765494439086055
:100B8000704730B500210022002400235C4D6D68C1
:100B900005F00C0121B1042905D0082923D105E075
:100BA0005C4D056022E05B4D05601FE0544D6D68B3
:100BB00005F47012524D6D6805F48034022505EB82
:100BC00092421CB9544D554305600BE04C4D6D6885
:100BD00005F400351DB1504D5543056002E04D4D03
:100BE0005543056002E04B4D056000BF00BF444D1A
:100BF0006D6805F0F0010909484D6B5C0568DD4042
:100C000045603F4D6D6805F4E061090A434D6B5C3A
:100C10004568DD4085603A4D6D6805F46051C90A4C
:100C20003E4D6B5C4568DD40C560354D6D6805F433
:100C30004041890B3A4D6B5CC568B5FBF3F5056126
:100C400030BD29B12E4A526902432D4B5A6104E04E
:100C50002B4A526982432A4B5A61704729B1284A6C
:100C600092690243264B9A6104E0254A92698243C5
:100C7000234B9A61704729B1214AD2690243204B24
:100C8000DA6104E01E4AD26982431D4BDA61704783
:100C900029B11B4AD2680243194BDA6004E0184AB2
:100CA000D2688243164BDA60704729B1144A126940
:100CB0000243134B1A6104E0114A12698243104B3C
:100CC0001A61704712494039086070470F49C8647B
:100CD00070470B49C87170470948406A40F08070FE
:100CE00007494862704701460020054A92680A4059
:100CF0000AB1012000E00020704701498872704766
:100D0000001002400000FFF8FFFFF6FE0000424224
:100D10008004424200127A0000093D0014000020C5
:100D20002400002010B50446FB48844209D101216B
:100D30008803FFF7ADFF00214FF48040FFF7A8FFC5
:100D400032E0F648844209D101214804FFF7ADFFA3
:100D500000214FF40030FFF7A8FF25E0F04884425F
:100D600009D101218804FFF7A0FF00214FF4802062
:100D7000FFF79BFF18E0EB48844209D10121C8042A
:100D8000FFF793FF00214FF40020FFF78EFF0BE0E9
:100D9000E548844208D101210805FFF786FF0021BC
:100DA0004FF48010FFF781FF10BD2DE9F04786B0AA
:100DB00005460E460024A24600BFA1460027B08982
:100DC00000B100BF2F462C8A4CF6FF700440F0881B
:100DD00004432C82AC894EF6F3100440B08831896C
:100DE0000843718908430443AC81AC8A4FF6FF4045
:100DF0000440B0890443AC8201A8FFF7C2FEC64894
:100E0000874202D1DDF810A001E0DDF80CA0A8892E
:100E100000F4004040B10AEBCA0000EB0A10316850
:100E20004900B0FBF1F807E00AEBCA0000EB0A103A
:100E300031688900B0FBF1F86420B8FBF0F00401E0
:100E40002009642101FB1089A88900F4004040B109
:100E5000322000EBC900B0FBF1F000F007000443C2
:100E600008E0322000EB09106421B0FBF1F000F043
:100E70000F0004432C8106B0BDE8F0874FF41651F3
:100E8000016000218180C18001810C21418100210C
:100E90008181704710B502460020108A4FF2FF038F
:100EA00018400B884C8823438C882343CC882343E9
:100EB0001843108210BD0021018041808180C180D3
:100EC000704721B1828942F40052828104E0828914
:100ED0004DF6FF731A4082817047F0B50346002437
:100EE00000260025002040F66A17B94200D100BF55
:100EF0001846C1F3421401F01F06012707FA06F550
:100F0000012C01D10C3004E0022C01D1103000E0A2
:100F100014301AB107682F43076002E00768AF4337
:100F20000760F0BD1AB1838A0B43838202E0838A93
:100F30008B4383827047028A4FF6F0731A40028215
:100F4000028A0A430282704782894FF2FF731A4075
:100F5000828182890A438281704721B1828942F06D
:100F60000202828104E082894FF6FD731A40828179
:100F70007047028A4FF6DF731A400282028A0A43E0
:100F80000282704721B1028A42F48042028204E068
:100F9000028A4BF6FF731A4002827047C1F30802BF
:100FA0008280704701468888C0F3080070478189B5
:100FB00041F0010181817047028BD2B20283028B22
:100FC00042EA012202837047028B02F47F420283CD
:100FD000028B0A430283704721B1828A42F02002C9
:100FE000828204E0828A4FF6DF731A408282704761
:100FF00021B1828A42F01002828204E0828A4FF696
:10100000EF731A408282704721B1828A42F008024F
:10101000828204E0828A4FF6F7731A408282704718
:1010200021B1828942F40042828103E08289C2F3C5
:101030000E028281704721B1828A42F4006282826C
:1010400004E0828A4FF2FF731A4082827047828ADC
:101050004FF6FB731A408282828A0A43828270476B
:1010600021B1828A42F00202828204E0828A4FF633
:10107000FD731A408282704702460020B1F5007F5E
:1010800000D100BF13880B400BB1012000E000200D
:10109000704701F40072B2F5007F00D100BFCA436F
:1010A0000280704770B5024600240023002500200E
:1010B00040F66A16B14200D100BFC1F3421501F0FB
:1010C0001F03012606FA03F3012D02D1968933404E
:1010D00006E0022D02D1168A334001E0968A3340A1
:1010E0000C12012606FA04F41688344013B10CB130
:1010F000012000E0002070BD10B50022002340F662
:101100006A14A14200D100BF0A1201249440A3B284
:10111000DC43048010BD0000003801400044004062
:1011200000480040004C004000500040064C074D75
:1011300006E0E06840F0010394E8070098471034A7
:10114000AC42F6D3FEF7F8FF6812000888120008D8
:101150000FB4054B10B503A9044A029800F017F824
:1011600010BC5DF814FB0000BD0500082C00002039
:1011700002E008C8121F08C1002AFAD17047704760
:10118000002001E001C1121F002AFBD170472DE9A8
:10119000F84F9946924688460546002706E02528DE
:1011A0000AD051464A4690476D1C7F1C287800287B
:1011B000F5D13846BDE8F88F002315F8011F184611
:1011C0002E2915D115F8011F04232A290DD06FF0FF
:1011D0002F022978A1F13004092C09D800EB8000F6
:1011E00002EB400008446D1CF3E758F8040B6D1C3B
:1011F0002A78002ADDD0632A07D0732A0FD0104640
:1012000051464A4690477F1C2AE018F8042B8DF877
:10121000002000218DF801106E46012103E058F8EE
:10122000046B4FF0FF315A074FF0000401D409E07E
:10123000641C84420BDA8C42FADB325D002AF7D15F
:1012400005E0641C8C42FCDB305D0028F9D12744AA
:1012500004E016F8010B51464A469047641EF8D246
:101260006D1CA3E7FFF7BAB9881200080000002040
:101270003000000070110008B81200083000002093
:10128000000400008011000800A24A0400000000D1
:101290000000000001020304060708090000000026
:1012A00001020304010203040607080902040608F8
:0812B000000000000000000036
:0400000508000131BD
:00000001FF
